:100000000C942A000C9476000C949D000C94C4006F
:100010000C943C000C943C000C943C000C943C0070
:100020000C943C000C943C000C943C000C943C0060
:100030000C943C000C943C000C943C000C943C0050
:100040000C943C000C943C000C943C000C943C0040
:100050000C943C0011241FBECFE5D4E0DEBFCDBF21
:1000600010E0A0E6B0E001C01D92A636B107E1F7AE
:100070000E94E0020C94E3020C9400008FB78068A9
:100080008FBF08958FB78F778FBF08958BB7806428
:100090008BBF85B7816085BF85B7826085BF0895B6
:1000A0008BB780688BBF85B7846085BF85B7886054
:1000B00085BF08958BB780628BBF84B78F7B84BF69
:1000C0000895009721F09093610080936000089557
:1000D000009721F090936500809364000895009745
:1000E00021F0909363008093620008951F920F9215
:1000F0000FB60F9211242F933F934F935F936F93FB
:100100007F938F939F93AF93BF93EF93FF93E09170
:100110006000F09161000995FF91EF91BF91AF915F
:100120009F918F917F916F915F914F913F912F910F
:100130000F900FBE0F901F9018951F920F920FB641
:100140000F9211242F933F934F935F936F937F935D
:100150008F939F93AF93BF93EF93FF93E0916200D0
:10016000F09163000995FF91EF91BF91AF919F913D
:100170008F917F916F915F914F913F912F910F9050
:100180000FBE0F901F9018951F920F920FB60F92EF
:1001900011242F933F934F935F936F937F938F938C
:1001A0009F93AF93BF93EF93FF93E0916400F0911F
:1001B00065000995FF91EF91BF91AF919F918F914C
:1001C0007F916F915F914F913F912F910F900FBE53
:1001D0000F901F901895843008F075C0683008F0B3
:1001E00072C04130B1F5813099F0813030F0823009
:1001F000D1F0833009F067C021C02AB381E090E0DC
:1002000002C0880F991F6A95E2F7282B2ABB59C0B4
:1002100027B381E090E002C0880F991F6A95E2F74A
:10022000282B27BB4EC024B381E090E002C0880F8A
:10023000991F6A95E2F7282B24BB43C021B381E0C4
:1002400090E002C0880F991F6A95E2F7282B21BB26
:1002500038C0813099F0813028F08230D9F0833075
:1002600091F524C02AB381E090E002C0880F991F65
:100270006A95E2F7809582238ABB23C027B381E089
:1002800090E002C0880F991F6A95E2F7809582235B
:1002900087BB17C024B381E090E002C0880F991F8C
:1002A0006A95E2F78095822384BB0BC021B381E07D
:1002B00090E002C0880F991F6A95E2F7809582232B
:1002C00081BB80E0089581E00895843008F069C022
:1002D000683008F066C0413059F5813041F0813016
:1002E00080F1823079F0833009F05BC016C028B30A
:1002F00081E090E002C0880F991F6A95E2F7282BF1
:1003000028BB4DC025B381E090E002C0880F991F43
:100310006A95E2F7282B25BB42C022B381E090E02A
:1003200002C0880F991F6A95E2F7282B22BB37C0BD
:10033000813091F0813028F08230D1F0833089F51E
:1003400023C02BB381E090E002C0880F991F6A950B
:10035000E2F7282B2BBB23C028B381E090E002C03A
:10036000880F991F6A95E2F78095822388BB17C092
:1003700025B381E090E002C0880F991F6A95E2F7EB
:100380008095822385BB0BC022B381E090E002C040
:10039000880F991F6A95E2F78095822382BB80E0DF
:1003A000089581E008958430D0F46830C0F481303D
:1003B00049F0813028F0823039F0833081F406C072
:1003C00089B305C086B303C083B301C080B390E096
:1003D00002C0959587956A95E2F78170089580E04F
:1003E0000895813051F0813030F0823041F0833017
:1003F00049F081E008956BBB03C068BB01C065BBD9
:1004000080E0089562BB80E00895613081F481301E
:1004100041F0813018F0823081F406C08FEF8ABB42
:1004200018C08FEF87BB15C08FEF84BB12C081301F
:1004300051F0813028F0823041F0833061F407C000
:100440008FEF8BBB06C017BA04C014BA02C08FEF7F
:1004500081BB80E0089581E00895813099F081307A
:1004600030F08230D1F0833021F181E008952BB358
:1004700081E090E002C0880F991F6A95E2F7282773
:100480002BBB15C028B381E090E002C0880F991FF4
:100490006A95E2F7282728BB0AC025B381E090E0DF
:1004A00002C0880F991F6A95E2F7282725BB80E0D4
:1004B000089522B381E090E002C0880F991F6A95E9
:1004C000E2F7282722BB80E008953E9A3F983D9AA4
:1004D000309A319A329A379A08958330A1F0843055
:1004E00028F4813061F0823060F41BC0853081F0E7
:1004F000853060F0863079F0873099F40FC0389AF3
:1005000012C0399A10C087B183600CC03A9A0BC0F0
:1005100087B1856007C087B1866004C087B18760F6
:1005200001C087B187B9369A349BFECF349A85B122
:1005300008950E942D02089540E00E9465010895EB
:1005400041E00E946501089541E00E94EB0008959A
:100550000E942D02089540E00E946501089541E047
:100560000E946501089541E00E94EB00089580E03B
:1005700060E041E00E94EB0080E061E041E00E9429
:10058000EB0080E067E040E00E94EB0083E062E087
:1005900040E00E94EB000E94650287E090E00E942C
:1005A0006D020E943E000E9446008AED92E00E9489
:1005B0006100089580E061E041E00E9465010895D6
:0A05C0000E94B702FDCFF894FFCFB0
:00000001FF
